:040000006DEF01F0AF
:08000800046ED8CF05F0E0CF33
:1000100006F00001E9CF0CF0EACF07F0E1CF08F0DD
:10002000E2CF09F0D9CF0AF0DACF0BF0F3CF12F01C
:10003000F4CF13F0FACF14F000C00EF001C00FF0AF
:1000400002C010F003C011F0F2AA2AEF00F0F2B4DF
:100050004BEF00F00EC000F00FC001F010C002F036
:1000600011C003F00CC0E9FF07C0EAFF078E08C00B
:10007000E1FF09C0E2FF0AC0D9FF0BC0DAFF12C0DE
:10008000F3FF13C0F4FF14C0FAFF045006C0E0FFF2
:1000900005C0D8FF10003C0ED76EB00ED66E252AD4
:1000A0009EAAFED7AECF24F0F2942AEF00F04C6166
:1000B0002066656368612065733A20002575202FEE
:1000C000202575202F20257500004C6120686F7257
:1000D000612065733A200000257520686F72617396
:1000E0002C202575206D696E75746F732C20257515
:1000F00020736567756E646F730044657365617323
:100100002063616D62696172206C6120666563685D
:1001100061205B535D2053692C205B4E5D204E6F48
:100120003A200000080E016E00008B9694960000A5
:100130002C368B98D8B09488D8A09498948682A6B0
:10014000FED7012EF1D700008B969496000094887C
:1001500000000000948682A6FED7016A000082B8E3
:1001600001808B9694968B9894981200080E2D6EB1
:1001700000C02EF094880000948682A6FED782B834
:10018000D88082A8D8900136000094968B962D2EA8
:10019000F1D7948800008B982E50D8A49498000032
:1001A000948682A6FED700008B96949600008B98CA
:1001B000949812002E6A2DC02EF0D8902E32780E10
:1001C0002E162E30006E00323F0E001600502E24E8
:1001D0002F6E2D500F0B2F24016E12000900F552C7
:1001E0000DE0F6CF27F0F7CF28F0F5509EA8FED708
:1001F000AD6E27C0F6FF28C0F7FFF0D712002A50D7
:10020000016A295C03E229C000F00CD0006A080EE4
:100210002B6E293600362A50005CD8B0006E0136AD
:100220002B2EF7D71200015027C029F0640E2A6E3A
:10023000E6DF00C027F00150300E07E128A20DD004
:1002400028B60BD028B8200E03D0289628982880EE
:10025000012601509EA8FED7AD6E27C029F00A0ED8
:100260002A6ECDDF00C027F00150300E06E128B61F
:1002700009D028A007D028B8200E012601509EA83A
:10028000FED7AD6E300E272627509EA8FED7AD6E46
:1002900012000900F6CF28F0F7CF29F0F5509EA8FC
:1002A000FED7AD6E28C0F6FF29C0F7FF272EF1D785
:1002B0001200EF5210E0EACF28F0E9CF27F0EF501C
:1002C0009EA8FED7AD6E28C0EAFF27C0E9FFE92A45
:1002D000D8B4EA2AEED7A0EF02F0F86AD09E078ED3
:1002E0001C6A1D6A1E6A1F6A206A216A226A236AC2
:1002F000256AB886A00EAF6E010EB06EA60EAC6E6B
:10030000900EAB6EC150C00B0F09C16E070EB46EDC
:10031000166A176A820ED56E3C0ED76EB00ED66E78
:10032000E80EFF12190E946E948800009486000067
:100330008B98949800008B969496D00E2C6EF2DEDB
:100340002C6AF0DE948800009486000082A6FED716
:100350008B98949800008B969496D10E2C6EE2DECA
:10036000010E006E03DF01507F0B276E2D6E22DF22
:1003700001C01EF0010E006EF9DE01507F0B276EEA
:100380002D6E18DF01C01DF0006AF0DE01503F0B3A
:10039000276E2D6E0FDF01C01CF09498000094862C
:1003A00082A6FED7000000D0000094880000010E55
:1003B000236E94880000948600008B989498000027
:1003C0008B969496D00E2C6EADDE030E2C6EAADEAC
:1003D000948800009486000082A6FED78B9894989B
:1003E00000008B969496D10E2C6E9CDE010E006E52
:1003F000BDDE01502F0B276E2D6EDCDE01C022F01A
:10040000010E006EB3DE01503F0B276E2D6ED2DE63
:1004100001C021F0010E006EA9DE01503F0B276ED6
:100420002D6EC8DE01C020F0006AA0DE01507F0BF7
:10043000276E2D6EBFDE01C01FF0949800009486D9
:1004400082A6FED7000000D0000094880000010EB4
:10045000236E232C75D0236AAE0EF66E000EF76E57
:10046000BDDE21C027F01B0E286EDDDEBE0EF66E4F
:10047000000EF76E030E276E0CDF20C027F01B0E58
:10048000286ED1DEC30EF66E000EF76E030E276ED9
:1004900000DF1FC027F01B0E286EC5DE0A0E9EA8C7
:1004A000FED7AD6E0D0E9EA8FED7AD6ECA0EF66ECF
:1004B000000EF76E93DE1CC027F01B0E286EB3DE15
:1004C000DA0EF66E000EF76E080E276EE2DE1DC025
:1004D00027F01B0E286EA7DEE40EF66E000EF76EF8
:1004E0000A0E276ED6DE1EC027F01B0E286E9BDE7E
:1004F000F00EF66E000EF76E090E276ECADE0A0EBB
:100500009EA8FED7AD6E0D0E9EA8FED7AD6EFA0E5C
:10051000F66E000EF76E62DE2450530803E024509E
:1005200073080EE1010E266E0A0E9EA8FED7AD6E70
:100530000D0E9EA8FED7AD6EEA6A26C0E9FFB9D6B9
:0405400088D7030055
:020000040030CA
:0E00000000C21E1E000781000FC00FE00F405F
:00000001FF
;PIC18F4620
;CRC=945E  CREATED="31-may.-19 13:14"
