:10000000FAEF00F04C6120686F72612065733A204E
:100010000000257520686F7261732C202575206D96
:10002000696E75746F732C20257520736567756E06
:10003000646F73000A4C61206665636861206573B4
:100040003A200000257520686F7261732C20257599
:10005000206D696E75746F732C202575207365672C
:10006000756E646F7300080E016E00008B96949697
:10007000000015368B98D8B09488D8A094989486B0
:1000800082A6FED7012EF1D700008B969496000031
:10009000948800000000948682A6FED7016A0000C2
:1000A00082B801808B9694968B9894981200080ED3
:1000B000166E00C017F094880000948682A6FED7C2
:1000C00082B8D88082A8D8900136000094968B968A
:1000D000162EF1D7948800008B981750D8A49498C6
:1000E0000000948682A6FED700008B9694960000AE
:1000F0008B9894981200176A16C017F0D890173290
:10010000780E17161730006E00323F0E00160050A2
:100110001724186E16500F0B1824016E12000900D8
:10012000F5520DE0F6CF11F0F7CF12F0F5509EA882
:10013000FED7AD6E11C0F6FF12C0F7FFF0D7120068
:100140001450016A135C03E213C000F00CD0006A83
:10015000080E156E133600361450005CD8B0006ED1
:100160000136152EF7D71200015011C013F0640E9E
:10017000146EE6DF00C011F00150300E07E112A24C
:100180000DD012B60BD012B8200E03D012961298D2
:100190001280012601509EA8FED7AD6E11C013F04B
:1001A0000A0E146ECDDF00C011F00150300E06E1D2
:1001B00012B609D012A007D012B8200E01260150A5
:1001C0009EA8FED7AD6E300E112611509EA8FED708
:1001D000AD6E12000900F6CF12F0F7CF13F0F55014
:1001E0009EA8FED7AD6E12C0F6FF13C0F7FF112E0A
:1001F000F1D71200F86AD09E0A6A0B6A0C6A0D6A7F
:100200000E6A0F6A106AB886A00EAF6E010EB06E4D
:10021000A60EAC6E900EAB6EC150C00B0F09C16E36
:10022000070EB46E046A056AC80EFF12190E946EAA
:1002300094880000948600008B98949800008B9618
:100240009496D00E156E0FDF156A0DDF94880000AE
:100250009486000082A6FED78B98949800008B9617
:100260009496D10E156EFFDE010E006E20DF015058
:100270007F0B116E166E3FDF01C00CF0010E006E99
:1002800016DF01507F0B116E166E35DF01C00BF0CB
:10029000006A0DDF01503F0B116E166E2CDF01C09E
:1002A0000AF094980000948682A6FED7000000D041
:1002B000000094880000020E106E9488000094865E
:1002C00000008B98949800008B969496D00E156E33
:1002D000CADE156AC8DE948800009486000082A6F3
:1002E000FED78B98949800008B969496D10E156E3D
:1002F000BADE010E006EDBDE01507F0B116E166E52
:10030000FADE01C00FF0010E006ED1DE01507F0B4E
:10031000116E166EF0DE01C00EF0006AC8DE0150EC
:100320003F0B116E166EE7DE01C00DF094980000D1
:10033000948682A6FED7000000D0000094880000BA
:10034000010E106E105002082BE1040EF66E000E26
:10035000F76EE5DE0AC011F01B0E126E05DF140EFB
:10036000F66E000EF76E080E116E34DF0BC011F042
:100370001B0E126EF9DE1E0EF66E000EF76E0A0EE2
:10038000116E28DF0CC011F01B0E126EEDDE2A0E6E
:10039000F66E000EF76E090E116E1CDF010E106E68
:1003A000102C2AD0340EF66E000EF76EB8DE0AC09E
:1003B00011F01B0E126ED8DE460EF66E000EF76EB2
:1003C000080E116E07DF0BC011F01B0E126ECCDE93
:1003D000500EF66E000EF76E0A0E116EFBDE0CC0AC
:1003E00011F01B0E126EC0DE5C0EF66E000EF76E84
:0C03F000090E116EEFDE106AA5D70300A5
:020000040030CA
:0E00000000C21E1E000781000FC00FE00F405F
:00000001FF
;PIC18F4620
;CRC=B219  CREATED="31-may.-19 11:39"
