:0400000041EF01F0DB
:08000800046ED8CF05F0E0CF33
:1000100006F00001E9CF0CF0EACF07F0E1CF08F0DD
:10002000E2CF09F0D9CF0AF0DACF0BF0F3CF12F01C
:10003000F4CF13F0FACF14F000C00EF001C00FF0AF
:1000400002C010F003C011F09DAA2AEF00F09EBA82
:100050004BEF00F00EC000F00FC001F010C002F036
:1000600011C003F00CC0E9FF07C0EAFF078E08C00B
:10007000E1FF09C0E2FF0AC0D9FF0BC0DAFF12C0DE
:10008000F3FF13C0F4FF14C0FAFF045006C0E0FFF2
:1000900005C0D8FF10009EAAFED7AECF25F0010EF6
:1000A000246E9E9A2AEF00F04C61206665636861B9
:1000B0002065733A20002575202F202575202F20DC
:1000C000257500004C6120686F72612065733A20CD
:1000D0000000257520686F7261732C202575206DD6
:1000E000696E75746F732C20257520736567756E46
:1000F000646F7300080E016E00008B9694960000EA
:100100002B368B98D8B09488D8A09498948682A6E1
:10011000FED7012EF1D700008B96949600009488AC
:1001200000000000948682A6FED7016A000082B813
:1001300001808B9694968B9894981200080E2C6EE2
:1001400000C02DF094880000948682A6FED782B865
:10015000D88082A8D8900136000094968B962C2ED9
:10016000F1D7948800008B982D50D8A49498000063
:10017000948682A6FED700008B96949600008B98FA
:10018000949812002D6A2CC02DF0D8902D32780E44
:100190002D162D30006E00323F0E001600502D241B
:1001A0002E6E2C500F0B2E24016E12000900F552FA
:1001B0000DE0F6CF26F0F7CF27F0F5509EA8FED73A
:1001C000AD6E26C0F6FF27C0F7FFF0D7120029500A
:1001D000016A285C03E228C000F00CD0006A080E17
:1001E0002A6E283600362950005CD8B0006E0136E1
:1001F0002A2EF7D71200015026C028F0640E296E6F
:10020000E6DF00C026F00150300E07E127A20DD036
:1002100027B60BD027B8200E03D027962798278023
:10022000012601509EA8FED7AD6E26C028F00A0E0A
:10023000296ECDDF00C026F00150300E06E127B652
:1002400009D027A007D027B8200E012601509EA86C
:10025000FED7AD6E300E262626509EA8FED7AD6E78
:1002600012000900F6CF27F0F7CF28F0F5509EA82E
:10027000FED7AD6E27C0F6FF28C0F7FF262EF1D7B8
:100280001200F86AD09E078E1C6A1D6A1E6A1F6AD9
:10029000206A216A226A236A246AB886A00EAF6E99
:1002A000010EB06EA60EAC6E900EAB6EC150C00BC0
:1002B0000F09C16E070EB46E166A176AC80EFF12D8
:1002C000190E946E94880000948600008B98949880
:1002D00000008B969496D00E2B6E0CDF2B6A0ADFF3
:1002E000948800009486000082A6FED78B9894988C
:1002F00000008B969496D10E2B6EFCDE010E006EE4
:100300001DDF01507F0B266E2C6E3CDF01C01EF0FE
:10031000010E006E13DF01507F0B266E2C6E32DF54
:1003200001C01DF0006A0ADF01503F0B266E2C6EE3
:1003300029DF01C01CF094980000948682A6FED7A5
:10034000000000D0000094880000010E236E948805
:100350000000948600008B98949800008B969496E9
:10036000D00E2B6EC7DE030E2B6EC4DE9488000009
:100370009486000082A6FED78B98949800008B96F6
:100380009496D10E2B6EB6DE010E006ED7DE0150B4
:100390002F0B266E2C6EF6DE01C022F0010E006ED1
:1003A000CDDE01503F0B266E2C6EECDE01C021F03D
:1003B000010E006EC3DE01503F0B266E2C6EE2DE96
:1003C00001C020F0006ABADE01507F0B266E2C6E51
:1003D000D9DE01C01FF094980000948682A6FED753
:1003E000000000D0000094880000010E236E232C32
:1003F00054D0236AA80EF66E000EF76ED7DE21C029
:1004000026F01B0E276EF7DEB80EF66E000EF76EA6
:10041000030E266E26DF20C026F01B0E276EEBDEB5
:10042000BD0EF66E000EF76E030E266E1ADF1FC0AD
:1004300026F01B0E276EDFDE0A0E9EA8FED7AD6EDD
:100440000D0E9EA8FED7AD6EC40EF66E000EF76EB2
:10045000ADDE1CC026F01B0E276ECDDED40EF66E70
:10046000000EF76E080E266EFCDE1DC026F01B0E79
:10047000276EC1DEDE0EF66E000EF76E0A0E266ED9
:10048000F0DE1EC026F01B0E276EB5DEEA0EF66EFD
:0E049000000EF76E090E266EE4DEA9D70300FB
:020000040030CA
:0E00000000C21E1E000781000FC00FE00F405F
:00000001FF
;PIC18F4620
;CRC=07D1  CREATED="31-may.-19 12:35"
