:10000000C8EF00F0486F72612025752C204D696E95
:1000100075746F2025752C20536567756E646F733A
:1000200020257500080E016E00008B969496000046
:1000300011368B98D8B09488D8A09498948682A6CC
:10004000FED7012EF1D700008B969496000094887D
:1000500000000000948682A6FED7016A000082B8E4
:1000600001808B9694968B9894981200080E126ECD
:1000700000C013F094880000948682A6FED782B850
:10008000D88082A8D8900136000094968B96122EC4
:10009000F1D7948800008B981350D8A4949800004E
:1000A000948682A6FED700008B96949600008B98CB
:1000B00094981200136A12C013F0D8901332780E7D
:1000C00013161330006E00323F0E0016005013243A
:1000D000146E12500F0B1424016E12000900F6CF9B
:1000E0000FF0F7CF10F0F5509EA8FED7AD6E0FC001
:1000F000F6FF10C0F7FF0E2EF1D712001150016A63
:10010000105C03E210C000F00CD0006A080E126E02
:10011000103600361150005CD8B0006E0136122E39
:10012000F7D7120001500EC010F0640E116EE6DF1A
:1001300000C00EF00150300E07E10FA20DD00FB637
:100140000BD00FB8200E03D00F960F980F8001260A
:1001500001509EA8FED7AD6E0EC010F00A0E116EB3
:10016000CDDF00C00EF00150300E06E10FB609D011
:100170000FA007D00FB8200E012601509EA8FED771
:10018000AD6E300E0E260E509EA8FED7AD6E12003C
:10019000F86AD09E0A6A0B6A0C6A0D6AB886A00ECD
:1001A000AF6E010EB06EA60EAC6E900EAB6EC1506F
:1001B000C00B0F09C16E070EB46E046A056AC80E43
:1001C000FF12190E946E94880000948600008B989C
:1001D000949800008B969496D00E116E23DF116ACE
:1001E00021DF948800009486000082A6FED78B98B9
:1001F000949800008B969496D10E116E13DF010E29
:10020000006E34DF01507F0B0E6E126E53DF01C0A3
:100210000CF0010E006E2ADF01507F0B0E6E126E85
:1002200049DF01C00BF0006A21DF01503F0B0E6E69
:10023000126E40DF01C00AF094980000948682A6F6
:10024000FED7000000D00000948800000D2C25D0BF
:10025000040EF66E000EF76E050E0E6E3FDF0AC03E
:100260000EF01B0E0F6E5EDF0B0EF66E000EF76EBD
:10027000090E0E6E33DF0BC00EF01B0E0F6E52DF39
:10028000160EF66E000EF76E0B0E0E6E27DF0CC00C
:0E0290000EF01B0E0F6E46DF0D6AD8D703006E
:020000040030CA
:0E00000000C21E1E000781000FC00FE00F405F
:00000001FF
;PIC18F4620
;CRC=7A76  CREATED="31-may.-19 10:37"
