:10000000E3EF00F04C6120686F72612065733A2065
:100010000A0A0000257520686F7261732C2025750F
:10002000206D696E75746F732C202575207365675C
:10003000756E646F7300080E016E00008B969496C7
:10004000000012368B98D8B09488D8A094989486E3
:1000500082A6FED7012EF1D700008B969496000061
:10006000948800000000948682A6FED7016A0000F2
:1000700082B801808B9694968B9894981200080E03
:10008000136E00C014F094880000948682A6FED7F8
:1000900082B8D88082A8D8900136000094968B96BA
:1000A000132EF1D7948800008B981450D8A49498FC
:1000B0000000948682A6FED700008B9694960000DE
:1000C0008B9894981200146A13C014F0D8901432CC
:1000D000780E14161430006E00323F0E00160050D9
:1000E0001424156E13500F0B1524016E1200090015
:1000F000F5520DE0F6CF0EF0F7CF0FF0F5509EA8B9
:10010000FED7AD6E0EC0F6FF0FC0F7FFF0D74AEF77
:1001100001F01150016A105C03E210C000F00CD035
:10012000006A080E126E103600361150005CD8B00E
:10013000006E0136122EF7D7120001500EC010F0DB
:10014000640E116EE6DF00C00EF00150300E07E1C4
:100150000FA20DD00FB60BD00FB8200E03D00F9604
:100160000F980F80012601509EA8FED7AD6E0EC0DD
:1001700010F00A0E116ECDDF00C00EF00150300EEF
:1001800006E10FB609D00FA007D00FB8200E012648
:1001900001509EA8FED7AD6E300E0E260E509EA8C2
:1001A000FED7AD6E12000900F6CF0FF0F7CF10F0BA
:1001B000F5509EA8FED7AD6E0FC0F6FF10C0F7FF3A
:1001C0000E2EF1D71200F86AD09E0A6A0B6A0C6AEA
:1001D0000D6AB886A00EAF6E010EB06EA60EAC6EA4
:1001E000900EAB6EC150C00B0F09C16E070EB46EFE
:1001F000046A056AC80EFF12190E946E94880000F6
:10020000948600008B98949800008B969496D00E5C
:10021000126E11DF126A0FDF9488000094860000CE
:1002200082A6FED78B98949800008B969496D10E58
:10023000126E01DF010E006E22DF01507F0B0E6E89
:10024000136E41DF01C00CF0010E006E18DF01508B
:100250007F0B0E6E136E37DF01C00BF0006A0FDFED
:1002600001503F0B0E6E136E2EDF01C00AF0949802
:100270000000948682A6FED7000000D0000094887B
:100280000000010E0D6E0D2C2AD0040EF66E000E2D
:10029000F76E2DD70AC00EF01B0E0F6E4EDF160E36
:1002A000F66E000EF76E080E0E6E7DDF0BC00EF0C0
:1002B0001B0E0F6E42DF200EF66E000EF76E0A0E5A
:1002C0000E6E71DF0CC00EF01B0E0F6E36DF2C0EA3
:1002D000F66E000EF76E090E0E6E65DF0D6AD3D74F
:0202E000030019
:020000040030CA
:0E00000000C21E1E000781000FC00FE00F405F
:00000001FF
;PIC18F4620
;CRC=C232  CREATED="31-may.-19 11:29"
